:400000000080002011000000D1010000D101000008B5044B1A6803F53F5302331A6000F0D9F800BFFA46004010B5054C237833B9044B13B10448AFF300800123237010BD02
:400040002081FF1F0000000050100000084B10B51BB108480849AFF300800848036803B910BD074B002BFBD0BDE81040184700BF00000000501000002481FF1F0881FF1F51
:400080000000000010B582B062B64A4C204600F04BFB392000F0FCFA0320002100F026FB4548002100F084FB0320022100F01EFB42480021012200F013FA0320042100F0FC
:4000C00015FB3F4800210A4600F00AFA0320052100F00CFB3B480021012200F001FA4FF4FA6000F065FF04F5FC7000F0DFF900F0E1FA0A20012100F0F9FA334801210A460D
:4001000000F0EEF90A20022100F0F0FA2F4801210A4600F0E5F94FF4FA6000F049FF204600F0C4F900F0C6FA00240BE000230093012005213222E3B200F000FE0A2000F075
:4001400037FF01342C2CF1DD4FF4FA6000F030FF00F0B0FA00240BE0002300930A2002210422E3B200F03CFC0A2000F021FF0134182CF1DD4FF4FA6000F01AFF00F09AFAF8
:400180000C4C04F57C7300930B2001213E22042300F0F8FB4FF4FA6000F00AFF00F08AFA04F59D640094012000215422062300F0E9FBFEE754100000341700003C17000081
:4001C0005C170000701700008017000088170000FEE700BF08B5104E104D16E029686B68AC68002204E051F8040B43F8040B0432A242F8D1E868002203E0002143F8041BEA
:4002000004328242F9D11035013E002EE6D100F0E5FEFFF737FFFEE701000000D420000008B5124A124B1A60124A136843F40073136000230AE0032B03D80F4A52F82310E8
:4002400000E00E490E4A42F8231001332F2BF2D90C4B1A780C4B1A70094A0C4B1A6000F0ADF800220A4B1A6008BD00BF0004FA050CED00E014ED00E000000000D1010000A2
:400280000080FF1FBC7600400481FF1F08ED00E00081FF1FFEE700BFF0B40022174611E050F82760F3B226F0FF0608E001EB420511F812406D78A5550132013BDBB2002B54
:4002C000F4D101370B2FEBD9F0BC7047064B1B78DBB203F00701054A11701B09013213704422034B1A707047CF0100496E5800407658004008B50A46002100F0A0FE08BDE7
:4003000038B50223234A138018210232117002F27E22137008224FF040231A70032103F5007319701C4B1B78DBB21C490B701C4B1A8041F25122023B1A80002419250CE005
:40034000184B1B7803F0010343EA440404F003044FF4F07000F01CFE013D0DB1032CEFD115B90320FFF796FF0F4B4FF480721A8007221A7000220D490A704820023108702B
:400380001A700222033B1A70094A137843F00103137038BD8040004008010049A146004022420040254200400440004006400040A243004008B500F037FE08BD38B572B68B
:4003C0002B4A137843F00403137000240CE0294963001A1952000A4423445B00C8589188FFF788FF0134E4B2062CF0D94FF090402149FFF751FF214A137843F002031370DA
:400400001032137843F0020313701D4C237843F040032370A2F58632513A137843F010031370184818490822FFF7C4FF174818490822FFF7BFFF174817490822FFF7BAFF1F
:40044000164A137843F008031370154D61232B70FFF756FF81232B700122124B1A70FFF735FF114821460E22FFF7A4FF38BD00BFE84600409417000030000048035001402F
:40048000A0430040C2510040CC020048F2510040D402004812510040DC020048224300400048004004000840B0430040014B1860704700BF4081FF1F10B50446032000F05F
:4004C00061FD00F007FD10F0100FFAD0204600F00DFD00F0FFFC10F0100FFAD010BD00BF2DE9F84306460F469046B0E00136B8F1000F54D1C7B11BE0A5F1200303EB430335
:400500002344564AD05CDFF85C91554B1A68D9F80030D35C1843FFF7CFFF0134D9F800300133C9F8003000E00024022CE4DD2CE0012F19D0002526E0A5F1200303EB4303C8
:400540002344464AD05CDFF81C91454B1A68D9F80030D35C5840FFF7AFFF0134D9F800300133C9F8003000E00024022CE4DD0CE03C4C3B4B1A682368D05CFFF79DFF01350D
:40058000236801332360022DF2DD354B1968354A1368581C1060C85CFFF78EFF57E0D7B11DE0A5F1200303EB83032C4A1344234493F84001DFF8AC90294B1A68D9F8003082
:4005C000D35C1843FFF778FF0134D9F800300133C9F8003000E00024042CE2DD2EE0012F1BD0002528E0A5F1200303EB83031B4A1344234493F84001DFF86890184B1A6890
:40060000D9F80030D35C5840FFF756FF0134D9F800300133C9F8003000E00024042CE2DD0CE0104C0E4B1A682368D05CFFF744FF0135236801332360042DF2DD084B1968FA
:40064000084A1368581C1060C85CFFF735FF3578002D7FF44BAFBDE8F88300BFC01700004081FF1F4881FF1F10B50446012000F089FC00F02FFC10F0100FFAD0204600F0B9
:4006800035FC00F027FC10F0100FFAD010BD00BF10B5044610F0800F00D07F242120FFF7E3FF44F08000FFF7DFFF2020FFF7DCFF10BD00BF10B54020FFF7D6FF8020FFF7AC
:4006C000D3FF002405E0084B1B68185DFFF7F4FE0134B4F5FC7FF6DB4020FFF7C5FF8020FFF7C2FF10BD00BF4081FF1F38B505460C460A4B18600A4B196001F0070040F099
:400700004000FFF7B1FF45F08000FFF7ADFF542303FB0454034B1C6038BD00BF4C81FF1F4481FF1F4881FF1F10B50446012000F029FC00F019FC2120FFF796FFC020FFF790
:4007400093FF0620FFF790FF1320FFF78DFF2020FFF78AFF0C20FFF787FF4020FFF784FF8020FFF781FF74B900200146FFF7BEFF04E00020FFF7A0FE0134A4B223B2B3F54A
:40078000FC7FF6DB10BD084B1C60002405E0064B1B68185DFFF790FE0134B4F5FC7FF6DB0022024B1A6010BD4081FF1F4881FF1F2DE9F84306460F466D4D286800F00700A2
:4007C00040F04000FFF750FF6A4C206860F07F00C0B2FFF749FF2A682368542101FB0233654A1360B1464FE009F10109B7B119E0A8F1200304EBC302604B03EB420393F83E
:4008000040035D4D5E4B1A682B68D35C1843FFF753FE01342B6801332B6000E00024072CE6DD2AE0012F17D0002524E0A8F1200304EBC302514B03EB420393F840034E4DC9
:400840004F4B1A682B68D35C5840FFF735FE01342B6801332B6000E00024072CE6DD0CE0454C474B1A682368D05CFFF725FE0135236801332360072DF2DD414B1A683E4BE5
:400880001B68D05CFFF718FE99F80080B8F1000FAAD1374C2368013303F0070040F04000FFF7E2FE334D286860F07F00C0B2FFF7DBFE2268542302FB03332A6813442E4A02
:4008C00013604EE00136B7B119E0A8F1200304EBC3022A4B03EB420393F84103264D284B1A682B68D35C1843FFF7E6FD01342B6801332B6000E00024072CE6DD2AE0012FBF
:4009000017D0002524E0A8F1200304EBC3021B4B03EB420393F84103174D194B1A682B68D35C5840FFF7C8FD01342B6801332B6000E00024072CE6DD0CE00F4C104B1A68CB
:400940002368D05CFFF7B8FD0135236801332360072DF2DD0A4B1A68074B1B68D05CFFF7ABFD96F80080B8F1000FABD1BDE8F8834481FF1F4C81FF1F4881FF1FC017000036
:400980004081FF1F2DE9F04781468A4615469846089F002615E00AEB060040F04000C0B2FFF762FE49F08000FFF75EFE002405E005FB0643F85CFFF77FFD0134A542F7DC34
:4009C00001364346B045E6DC5344542202FB03994D44024B1D60BDE8F08700BF4881FF1F2DE9F84F8346884617461D469DF8286042F04000FFF738FE4BF080094846FFF706
:400A000033FEDA46542303FB07B3944A13601EB9FF20FFF751FD14E0012E0AD1904A1268581C8E490860D05CC043C0B2FFF744FD07E08B4A1268581C88490860D05CFFF7C9
:400A40003BFD002438E0072D11D8DFE805F004041206080A0C0E80230CE0E0230AE0F02308E0F82306E0FC2304E0FE2302E0FF2300E0C02346B97A4A1168784A1268885C1E
:400A80001843FFF719FD11E0012E08D1744A1168724A1268885C5840FFF70EFD06E0704B1A686E4B1B68D05CFFF706FD0134E4B26A4A136801331360052CC4D91EB9FF2003
:400AC000FFF7FAFC16E0012E0BD1654B1968634A1368581C1060C85CC043C0B2FFF7ECFC08E05F4B19685D4A1368581C1060C85CFFF7E2FC013FFFB288E0082D02D9083D96
:400B0000EDB200E0002547F04000FFF7ADFD4846FFF7AAFD542303FB07A3504A13601EB9FF20FFF7C9FC14E0012E0AD14C4A1268581C4A490860D05CC043C0B2FFF7BCFC26
:400B400007E0474A1268581C44490860D05CFFF7B3FC00243AE0072D13D8DFE805F0041406080A0C0E1000230EE0C0230CE0E0230AE0F02308E0F82306E0FC2304E0FE23E9
:400B800002E0FF2300E0802346B9354A1168334A1268885C1843FFF78FFC11E0012E08D12F4A11682D4A1268885C5840FFF784FC06E02B4B1A68294B1B68D05CFFF77CFCC3
:400BC0000134E4B2254A136801331360052CC2D91EB9FF20FFF770FC16E0012E0BD1204B19681E4A1368581C1060C85CC043C0B2FFF762FC08E01A4B1968184A1368581CB5
:400C00001060C85CFFF758FC013FFFB247453FF674AF082D03D9A5F10804E4B200E0002448F04000FFF720FD4846FFF71DFD542303FB08B3094A13601EB9FF20FFF73CFC71
:400C400018E0012E0ED1064A1268581C03490860D05CC043C0B2FFF72FFC0BE04881FF1F4081FF1F334A1268581C33490860D05CFFF722FC00253AE0072C13D8DFE804F062
:400C8000041406080A0C0E1001230EE0C1230CE0E1230AE0F12308E0F92306E0FD2304E0FF2302E0FF2300E0812346B9214A1168214A1268885C1843FFF7FEFB11E0012E48
:400CC00008D11C4A11681C4A1268885C5840FFF7F3FB06E0174B1A68174B1B68D05CFFF7EBFB0135EDB2144A136801331360052DC2D926B9FF20FFF7DFFBBDE8F88F012EFA
:400D00000CD10C4B19680C4A1368581C1060C85CC043C0B2FFF7D0FBBDE8F88F054B1968054A1368581C1060C85CFFF7C5FBBDE8F88F00BF4081FF1F4881FF1F2DE9F84368
:400D400080460C46174699469DF8205040F04000FFF78AFC44F08000FFF786FC2646542303FB084455B94D4B1B68611C4C4A1160185D40F07E00FFF79FFB14E0012D0AD178
:400D8000464B1B68611C464A1160185D80F07E00FFF792FB07E0414B1B68611C404A1160185DFFF789FB4FF0010823E04DB93B4B1A683B4B1B68D05C40F07E00FFF77CFBB5
:400DC00012E0012D09D1354B1A68354B1B68D05C80F07E00FFF770FB06E0304B1A68304B1B68D05CFFF768FB08F101082C4A1368013313604C46C145D8DC013422E04DB9F0
:400E0000264B1A68264B1B68D05C40F04200FFF753FB12E0012D09D1204B1A68204B1B68D05C80F04200FFF747FB06E01B4B1A681B4B1B68D05CFFF73FFB0134184A1368D9
:400E400001331360BB1BA342D9DC65B9134B1968134A1368581C1060C85C40F07E00FFF72BFBBDE8F883012D0CD10C4B19680C4A1368581C1060C85C80F07E00FFF71CFBDD
:400E8000BDE8F883054B1968054A1368581C1060C85CFFF711FBBDE8F88300BF4081FF1F4881FF1F08B500F07BF8094A137843F0200313700232137843F010031370013236
:400EC000137843F01003137000F06EF808BD00BF94650040014B1878704700BF66650040014B1878704700BF67650040034B1B7813F0040FFAD0024B187070476665004078
:400F00004465004008B501E00A4B1B780A4B1B7813F0200FF8D100F043F8084B1A7842F001021A701A7802F0FE021A7000F03CF808BD00BF5465004067650040946500409C
:400F400008B50F22064B1A70FFF7DCFFFFF7C2FFFFF7C6FF0023034A13700132137008BD846500408665004008B5054B1B7823B9FFF7E6FF0122024B1A70FFF793FF08BD05
:400F80003C81FF1F014B1870704700BF776500400230800803D000BF01380046FCD17047EFF3108072B6704780F31088704700BF10B5044605E0084B1868FFF7E9FFA4F591
:400FC0000044B4F5004FF6D8034B586800FB04F0FFF7DEFF10BD00BF0C81FF1F0E4B70B51E460E4C0025E41AA410A54204D056F8253098470135F8E701F05AF8084B094C90
:401000001E46E41AA4100025A54204D056F8253098470135F8E770BDBC200000BC200000BC200000C420000010B5431E0A44914204D011F8014B03F8014FF8E710BD0346CE
:401040000244934202D003F8011BFAE77047000000000000FF01010101010101010101010101010101010101010101010101010101010101010101010101010101010101AA
:40108000010101010101010101010101010101010101010101010101010101010101010101010101010101FFFF00000000000000000000000000000000000000000000000B
:4010C0000000000000000000000000000000000000000000000000000000000000000000000000000000000000000000000000000000000000000000000000FFFF000000F2
:4011000000000000000000000000000000000000000000000000000000000000000000000000000000000000000000000000000000000000000000000000000000000000AF
:40114000000000000000000000000000000000FFFF000000000000000000000000000000000000000000000000000000000000000000000000000000000000000000000071
:401180000000000000000000000000000000000000000000000000000000000000000000000000FFFF00000000000000000000000000000000000000000000000000000031
:4011C00000000000000000000000000000000000000000000000000000000000000000000000000000000000000000000000000000000000000000FFFF8080808080808071
:4012000080808080808080808080808080808080808080808080808080808080808080808080808080808080808080808080808080808080808080808080808080808080AE
:401240008080808080808080808080FFFFFFFFFFFFFFFFFFFFFFFFFFFFFFFFFFFFFFFFFFFFFFFFFFFFFFFFFFFFFFFFFFFFFFFFFFFFFFFFFFFFFFFFFFFFFFFFFFFFFFFFFF23
:40128000FFFFFFFFFFFFFFFFFFFFFFFFFFFFFFFFFFFFFFFF7F7F3F3F1F0F0F07070303FFFFFFFFFFFFFFFFFFFFFFFFFFFFFFFFFFFFFFFFFFFFFFFFFFFFFFFFFFFFFFFFFF96
:4012C000FFFFFFFFFFFFFFFFFFFFFFFFFFFFFFFFFFFFFFFFFFFFFFFFFFFF7F7F3F1F1F0F0F070703010100000000000000000000000000FFFFFFFFFFFFFFFFFFFFFFFFFF69
:40130000FFFFFFFFFFFFFFFFFFFFFFFFFFFFFFFFFFFFFFFFFFFFFFFFFFFFFFFFFFFFFFFF7F7F3F1F1F0F0F0707030101000000000000000000000000000000000000000021
:4013400000000000000000FFFFFFFFFFFFFFFFFFFFFFFFFFFFFFFFFFFFFFFFFFFFFFFFFFFFFFFFFFFFFF7F3F3F1F1F0F0F0703030101000000000000000000000000000024
:40138000000000000000000000000000000000000000000000000000000000FFFFFFFFFFFFFFFFFFFFFFFFFFFFFFFFFF7F3F3F1F1F0F0F07030301010000000000000000D6
:4013C0000000000000000000000000000000000000000000000000000000000000000000000000000000000000000000000000FFFFFFFFBFBF9F9F8F878783838181808090
:4014000080808080808080808080808080808080808080808080808080808080808080808080808080808080808080808080808080808080808080808080808080808080AC
:40144000808080FF0000000000000000404040505050505054D4D4D6F6F6F6FEFEFEFEFEFEFE7E7E7E7E7CFCFCF8F8F8F0F0E0C080000000000000000000000000000000A3
:4014800000000000000050545555555555555555F5FDFFFFF7F7F3F3E1C1C1C1C08181C0C0C0C0C0C0C0800080000001010101010101818141C1C2C6C6FC76FC8C84840497
:4014C00000000000155555555555555555575F7FFFFFFFFFFFFFFFFFFFFFFFFFFFFFFFFFFFFFFFFFFF7D0780C0F0FEFEF6FF7F1F01010301000001010000000000000000C4
:4015000000000000010105050515151515155557575F5F5F5F7F7F7F7F7F7F7F7F7F1F034160303E3F1F1F0F0F0703010000000000000000000000000000000000F0F03054
:401540003030307070E0C080000080E0F07030383838307000000000000000000000000000000000000000C0E0E0703038383838307000000000000030F0B090C0E0E0F033
:40158000E0FCFCFEFCF0E0C0000000000000000000FFFFC0C0C0C0E0E07F3F0F0000071F3F3870F0E0C0C000000080F0F81C0E0E06060E1C3CF8E00000FEFF0701000000F2
:4015C0000000000000000010082EFFFFFFFFFFFFFFFFFFFFFFFFFFFFFFFFFFFFFFFEFCF8F0E0000000FFFF010101000000000000000070E0E0C0C0C0C0E17F3F0E00073FD2
:401600007FF0E0C0C0C0C0E0783F0F0000071F3E78F0E0C0C0C0C0C0E0E00000000001060A3B5F1F7F7F7FBFBF5F1F0F2F070F130B0B0503000200009F5FEFEF7FB7B7DB1B
:40164000F7CF3FFFFFFFFFFFFFFFFFFF0F0FCFCFCFEFEFCFCF8F1F7FFFFFFFFFFFFFFFFFFFFFFFFFFFFFFFFFFFFFFFFFFFFFFFFFFFFFFFFFFF0301FBFFFFFFFFFFFFFFFF60
:40168000FFFFFFFFFFFFFFFFFFFFFFFFFFFEF9E737FFFFEFEFEFFFEFFFC0DFDF1FFFFF0700F89F9F1F1F4FCFE7F1F8FCFFFFFF3F0FC3F1F9F9F9F90103FFFFFF3F0FC3F184
:4016C000F9FCF0E1FFFFFFFF07007E3F1FCFC7E3F1F9FDFFFF870339787CFCFCFFFFFFFFFFFFFFFFFEFEDEC0DFDFDBDBDCDFD9DFE0FFFF80C0FFFFFFFFFEFCF8F1E3E3C735
:40170000CFFFFFE0C08F8FCFCFE7F1F8FEFFFFF1C0CE8F9FCFCFE7E7F3FFFF8780FCFEFEFCF0E3C78F8FCFFF8F8F9F8FCECCE0E1FFFFFFFF437970726573730050536F4348
:40174000354C502026204E4F4B4941353131305F204E6F6B6961353131300000456A656D706C6F30313233343536373839000000456A656D706C6F436F6E666967000000C6
:401780004F564552000000004241434B47524F554E44000000510040100020510040500000000140001000140140000800400140000A004C014000020050014020000000F2
:4017C0000000000017000300031F0A1F0A1F050904120F171C000300000E11110E00050205040E041008000404040010000804021F111F121F101D151711151F07041F17F1
:40180000151D1F151D01011F1F151F17151F000A00100A00040A110A0A0A110A040115030E15161E051E1F150A0E11111F110E1F15151F05050E151D1F041F111F1108105A
:401840000F1F041B1F10101F061F1F0E1F0E110E1F05020E111E1F0D16121509011F010F100F0718071F0C1F1B041B031C031915131F110002040800111F0201021010104B
:401880000102001A161C1F120C0C12120C121F0C1A16041E0506150F1F021C001D0010100D1F0C12111F101E0E1E1E021C0C120C1E0A04040A1E1C0202141E0A021F120EF9
:4018C000101E0E100E1E1C1E120C1202141E1A1E16041B11001F00111B040406021F1F1F00000000000000000000000000000000000000000000000000000000000000009C
:40190000000000000000005F00000007000700147F147F14242A7F2A12231308646236495522500005030000001C2241000041221C0014083E081408083E08080050300053
:40194000000808080808006060000020100804023E5149453E00427F400042615149462141454B311814127F1027454545393C4A4949300171090503364949493606494999
:40198000291E003636000000563600000814224100141414141400412214080201510906324979413E7E1111117E7F494949363E414141227F4141221C7F494949417F096C
:4019C0000909013E4149497A7F0808087F00417F41002040413F017F081422417F404040407F020C027F7F0408107F3E4141413E7F090909063E4151215E7F091929464628
:401A00004949493101017F01013F4040403F1F2040201F3F4038403F631408146307087008076151494543007F41410002040810200041417F000402010204404040404051
:401A4000000102040020545454787F484444383844444420384444487F3854545418087E0901020C5252523E7F0804047800447D40002040443D007F1028440000417F4097
:401A8000007C041804787C0804047838444444387C14141408081414187C7C080404084854545420043F4440203C4040207C1C2040201C3C4030403C44281028440C5050A3
:401AC000503C4464544C44000836410000007F0000004136080010080810080000000000007F3E1C08081C3E7F00087C7E7C08103E7E3E103E3E3E3E3E007F3E1C080000A0
:401B000000000000000000000000000000000000000000003E00FF0DFF0D3E0000000000000004000700030000000400070003001001FE0FFE0F10011001FE0FFE0F10017D
:401B40001C033E072204FF0FFF0F4204CE078C03000000040607C603F0003C060E0602001E063F0FE109C109410B210C3F1E1E1600000000040007000300000000000000B5
:401B800000000000F801FE07070E010800000000000000000108070EFE07F801000000002000A800F80070007000F800A8002000200020002000FC01FC01200020002000D3
:401BC000000000000020003C001C00000000000020002000200020002000200020002000000000000000000C000C0000000000000000000C000FC003F0003C000F00030039
:401C0000FE07FF0F0108010801080108FF0FFE07000004080608FF0FFF0F000800080000020E030F8109C108610831081F080E0C0204030C0108210821082108FF0FDE0730
:401C4000E000F00098008C008608FF0FFF0F00083F043F0C2108210821082108E10FC107FC07FE0F2308210821082108E00FC007030003000100810FE10F79001F00070042
:401C8000DE07FF0F2108210821082108FF0FDE071E003F08210821082108210CFF07FE0300000000000018061806000000000000000000000010181E180E000000000000DE
:401CC0004000E000B00118030C06060C020800000000A000A000A000A000A000A000000000000208060C0C061803B001E0004000020003000100C10DE10D31001F000E00D0
:401D0000020003000100C10DE10D31001F000E00F80FFC0F8600830083008600FC0FF80FFF0FFF0F2108210821082108FF0FDE07FC03FE07030C010801080108030C060651
:401D40000108FF0FFF0F01080108030CFE07FC030108FF0FFF0F210821087108030C030C0108FF0FFF0F21082100710003000300FC03FE07030C010841084108C307C60FD8
:401D8000FF0FFF0F2000200020002000FF0FFF0F000001080108FF0FFF0F0108010800000006000E000800080108FF0FFF0701000108FF0FFF0F7000D8008C01070F030EC8
:401DC0000108FF0FFF0F010800080008000C000CFF0FFF0F0C00780078000C00FF0FFF0FFF0FFF0F1C0038007000E000FF0FFF0FFE07FF0F0108010801080108FF0FFE0727
:401E00000108FF0FFF0F2108210021003F001E00FE07FF0F0108010E011C0138FF2FFE070108FF0FFF0F210821006100FF0F9E0F0E061F0E3108210821086108C70F8607DE
:401E4000030003000108FF0FFF0F010803000300FF07FF0F0008000800080008FF0FFF07FF01FF030006000C000C0006FF03FF01FF01FF0F000EE003E003000EFF0FFF01BA
:401E8000070E0F0F9801F000F00098010F0F070E0F001F003008E00FE00F30081F000F00030F830FC1086108310819080F0C070C00000000FF0FFF0F010801080000000074
:401EC0005555AAAA5555AAAA5555AAAA5555AAAA0000000001080108FF0FFF0F0000000008000C0006000300030006000C0008000040004000400040004000400040004082
:401F00000000000008000F0007000000000000000007900F900890089008F007E00F00080108FF0FFF07100810083008E00FC007E007F00F1008100810081008300C200446
:401F4000C007E00F300810081108FF07FF0F0008E007F00F9008900890089008F00CE00400001008FE0FFF0F1108110003000200E027F06F104810481048E07FF03F100092
:401F80000108FF0FFF0F200010001000F00FE00F000010081008F60FF60F0008000800000030006010401040F67FF63F000000000108FF0FFF0FC000C0016003300E100C47
:401FC000000001080108FF0FFF0F000800080000F00FF00F3000E007E0073000F00FE00F1000F00FE00F100010001000F00FE00FE007F00F1008100810081008F00FE00741
:402000001040F07FE07F104810081008F00FE007E007F00F100810081048E07FF07F10401000F00FE00F100010001000300020006004F00C9008900890091009300F200663
:4020400010001000FE07FF0F1008100C00040000F007F00F000800080008F007F00F0008F001F0030006000C000C0006F003F001F007F00F000C80078007000CF00FF007EB
:402080001008300C6006C003C0036006300C1008F047F04F0048004800480068F03FF01F300C300E100B9009D0087008300C100CF8B500BFF8BC08BC9E4670474D00000090
:4020C00021020000F8B500BFF8BC08BC9E46704729000000E82000000881FF1F180000003000000000000000000000000000E02EC05D00001800000000366E010000000036
:40210000000000000000000000000000000000000000000000000000000000000000000000000000000000000000000000000000000000000000000000000000000000009F
:40214000000000000000000000000000000000000000000000000000000000000000000000000000000000000000000000000000000000000000000000000000000000005F
:40218000000000000000000000000000000000000000000000000000000000000000000000000000000000000000000000000000000000000000000000000000000000001F
:4021C00000000000000000000000000000000000000000000000000000000000000000000000000000000000000000000000000000000000000000000000000000000000DF
:020000040003F7
:0200000480007A
:40000000035200400165004062140140491501404F16014036170140021B01400648014008490140024C0140064D014002500140600161407802840F00C6047706080C0458
:400040000E20104612801439160618011A5E1CC624C2260428802A462C42320F3470368038083A303E40403241064210440545CE46BB47FD483F49FF4AFF4BFF4C224EF07B
:400080004F0850045602572C58045A045B045F0162C0644065016610671168C069016B116C406D016E406F01810184C08501860489228A608B088C908D018E4090809101C9
:4000C000950496FF987F99079A809B189CC09D409E01A0C0A140A202A4C0A510A608A81FA908AA20AB21AD01AE9FB13FB540B6FFB922BE40BF01D804D904DF01008801016B
:40010000071509800A540D800E140F4010081104134015A1170818281A151B101F8027842E502FA0362037863D053F604215484449014B845001514052045320604068286D
:4001400069456A426B19718073028001830487408E0190409120934094289541961797049D019E04A004A221A468A580A724AA44AB01ACC0AE10AF30C0EDC2FFC4F7CAF086
:40018000CCF0CEF0D00ED20CD801E218EC0104B205480641070308C109700A2C0F011406177C188119111A5A1B021E08278229042B233080320733703440350F36383780B9
:4001C00038083E113F045409580459045B045F0181248310840985308616870F881089218A688B1E8C688D0C8F509004915C9203941395509624970C981599549A429B084B
:400200009C689D5CA068A108A468A740A868A911AB22B007B130B340B478B50FBA22BB02BF04D440D804D904DB04DF0100080160042809800A540D100E22102811011840B8
:4002400019201A401C201E221F1120082119222023402540271829112A042E102F20302831803201351036203708382839423C203D803E045C805E015F2461086309670257
:400280006AA083108E10C067C2EFC40ECA67CC6FCE7FD6F0D81EE240E208EC015280562082208E80D460E2207B017C808C80A301AF01DC80DE20EE100D04C20470048504B9
:4002C00090089108A804DC0110011A01004343004300000000060600060000002000000000000000000000000000000000000000000000000000000000000000000000001D
:4003000000000000000000000000000000000000000000000000000000000000000000000000000000000000000000000000000000000000000000000000000000000000BD
:40034000000000000000000000000000000000000000000000000000000000000000000000000000000000000000000000000000000000000000000000000000000000007D
:40038000000000000000000000000000000000000000000000000000000000000000000000000000000000000000000000000000000000000000000000000000000000003D
:4003C00000000000000000000000000000000000000000000000000000000000000000000000000000000000000000000000000000000000000000000000000000000000FD
:0200000490006A
:0400000000004005B7
:0200000490105A
:04000000BC90ACAF55
:0200000490303A
:02000000232EAD
:0200000490402A
:4000000000000000000000000000000000000000000000000000000000000000000000000000000000000000000000000000000000000000000000000000000000000000C0
:400040000000000000000000000000000000000000000000000000000000000000000000000000000000000000000000000000000000000000000000000000000000000080
:400080000000000000000000000000000000000000000000000000000000000000000000000000000000000000000000000000000000000000000000000000000000000040
:4000C0000000000000000000000000000000000000000000000000000000000000000000000000000000000000000000000000000000000000000000000000000000000000
:0200000490501A
:0C00000000012E16106900012E2233971B
:00000001FF